:020000000C945E
:100002008A000C9400000C9400000C9400000C94E4
:1000120000000C9400000C9400000C9400000C945E
:1000220000000C9400000C9400000C9400000C944E
:1000320000000C9400000C9400000C9400000C943E
:10004200BC000C9400000C94EA000C9400000C9488
:1000520020010C94AE010C9400000C9400000C944E
:1000620000000C9400000C9400000C9400000C940E
:1000720000000C9400000C9461010C9400000C949C
:100082008C010C9400000C9400001027E80364001B
:100092000A00010000100001100001000000980495
:1000A2000000010000000000242531642531642590
:1000B20031642531642531642531642C2531642570
:1000C20031642531642531642531642531642C2560
:1000D20031642531642C2531642531642531642550
:1000E20031642531642531642531642531640A0D7A
:1000F200000001002D4E414E00494E460000010015
:1001020002009E000A000400A00001000B06F40099
:100112000000F894EE27ECBBF1E0F5BFE5BFE093F9
:100122006C00F8E1F1BDE1BD8DE0A2E0BB27ED93EB
:100132008A95E9F780E090E1A0E0B1E0ED930197C4
:10014200E9F7E0E0F1E085919591009761F0A591E2
:10015200B59105901590BF01F00105900D920197A0
:10016200E1F7FB01F0CFEFEFEDBFE0E1EEBFC0E062
:10017200D5E00C9424040A921A92FA926A937A9322
:100182008A939A93AA93BA93EA93FA93EFB7EA936C
:10019200E1E0F0E0E815F90519F4F30131963F01C9
:1001A2006414750440F088249924662477240E94FC
:1001B2003E060E944306E991EFBFF991E991B99198
:1001C200A9919991899179916991F99019900990E0
:1001D2001895EA93FA93EFB7EA931A930A931BB12D
:1001E2000CB1E12FEC7189F4EA2DA394F0E0E05018
:1001F200FB4F0083E0E4EA1509F4AA24C394E0E487
:10020200EC1519F4CC24689420F809911991E9911C
:10021200EFBFF991E99118951A93CC20F1F3ED2DE6
:10022200D394F0E0E050FB4F1081E0E4ED1509F4C7
:10023200DD24F894CA947894E12F199108950E94CC
:100242004706E0918205E03099F0E150E0938205A3
:10025200E0918105EF5FE09381050E944D06E08108
:10026200ECB9A0918105A03419F4E0E0E093810596
:100272006EC0AA93A0918205A034E1F3F894E091B4
:100282008205E03011F45D9916C0E0918005EF5FC0
:10029200E09380050E944D06A881A083A09180056D
:1002A200A03419F4E0E0E0938005E0918205EF5F6D
:1002B200E093820502C0E881ECB978942196089512
:1002C2000E9447061A930A9310919B0000919C008A
:1002D200E12FEC71E9F4E091C305EF5FE093C30510
:1002E200E150F0E0ED57FA4F0083A091C305A0342E
:1002F20019F4E0E0E093C305A091C505AF5FA093B8
:10030200C505A03429F4E0E0E093C505689421F81E
:10031200099119911CC00E944706E0910806E0303D
:10032200B1F0E150E0930806E0910706EF5FE09339
:100332000706E150F0E0EA53FA4FE081E0939C00B7
:10034200A0910706A03419F4E0E0E0930706E991D2
:10035200EFBFF991E991A9911895EA93FA93E4B163
:10036200F5B1E0930906F0930A06F991E99118951F
:10037200B49902C0869B69C0082C092811F40C9418
:100382002602D99AD89A029902C0B39B05C00E944C
:100392003E060E94520659C0849B03C00E94560624
:1003A20054C0079B51C0D898D9980E944306989B85
:1003B2001CC0DB9A0E945206D89A0E9452060299E9
:1003C20002C0B39B05C00E943E060E9452060CC0AA
:1003D200859B09C0DB980E945206D8980E9452065B
:1003E2000E94590601C0E5CF2FC098992DC0DB9A13
:1003F2000E945206D89A0E945206029902C0B39BEA
:1004020005C00E943E060E9452061DC0859B1AC06E
:10041200DB980E945206D8980E9452060E945F06FC
:10042200D99AD89A029902C0B39B05C00E943E068F
:100432000E94520606C0849B03C00E94560601C059
:10044200EFCF01C0D4CF01C097CF0895B59902C0B4
:10045200879B16C0082C092899F0DB9AD89A029B30
:1004620005C00E943E060E9452060AC0859902C03B
:10047200B39B05C0DB98D8980E94520601C0EACF10
:10048200089576DFE3DF0895C7DEBE2EE8E5EB15BB
:1004920011F00C94C302EAEAF0E0FA93EA93E0E086
:1004A2009899E1E00E946506E0E09999E1E00E94F6
:1004B2006506E0E09A99E1E00E946506E0E09B991A
:1004C200E1E00E946506E0E09C99E1E00E94650699
:1004D200E0E09D99E1E00E946506E0E0B199E1E08B
:1004E2000E946506E0E0B299E1E00E946506E0E064
:1004F200B399E1E00E946506E0E0B499E1E00E9470
:100502006506E0E0B599E1E00E946506E0E0B69993
:10051200E1E00E946506E0E08099E1E00E94650664
:10052200E0E08199E1E00E946506E0E08699E1E081
:100532000E946506E0E08799E1E00E946506E0E03E
:100542008499E1E00E946506E0E08599E1E00E947D
:100552006506E0E00799E1E00E946506E0E00299A5
:10056200E1E00E946506E0E00599E1E00E9465068F
:10057200E0E00699E1E00E94650688E50E9419061E
:10058200EF966B96E3E4EB1511F00C943203082C12
:10059200092811F40C943103D99AD89A029902C00D
:1005A200B39B05C00E943E060E94520659C0849B1E
:1005B20003C00E94560654C0079B51C0D898D998D0
:1005C2000E944306989B1CC0DB9A0E945206D89A4E
:1005D2000E945206029902C0B39B05C00E943E06C9
:1005E2000E9452060CC0859B09C0DB980E945206ED
:1005F200D8980E9452060E94590601C0E5CF2FC02A
:1006020098992DC0DB9A0E945206D89A0E945206EF
:10061200029902C0B39B05C00E943E060E94520688
:100622001DC0859B1AC0DB980E945206D8980E9472
:1006320052060E945F06D99AD89A029902C0B39BC9
:1006420005C00E943E060E94520606C0849B03C05B
:100652000E94560601C0EFCF01C0D4CF01C097CF90
:1006620082C0EFE4EB15B9F4082C092899F0DB9A63
:10067200D89A029B05C00E943E060E9452060AC0FA
:10068200859902C0B39B05C0DB98D8980E94520698
:1006920001C0EACF68C0E3E5EB1521F4DB98D898F6
:1006A200D99861C0E1E4EB1559F4D89B02C0E0E0AF
:1006B20001C0E1E0E03011F4D89801C0D89A53C0EB
:1006C200E2E4EB1559F4D99B02C0E0E001C0E1E09D
:1006D200E03011F4D99801C0D99A45C0E4E4EB1591
:1006E20059F4DA9B02C0E0E001C0E1E0E03011F42D
:1006F200DA9801C0DA9A37C0E5E4EB1559F4DB9BCE
:1007020002C0E0E001C0E1E0E03011F4DB9801C09A
:10071200DB9A29C0E6E4EB1559F4AF9B02C0E0E096
:1007220001C0E1E0E03011F4AF9801C0AF9A1BC004
:10073200E7E4EB1559F4AE9B02C0E0E001C0E1E052
:10074200E03011F4AE9801C0AE9A0DC0E8E4EB15AA
:1007520051F4DF9B02C0E0E001C0E1E0E03011F4BF
:10076200DF9801C0DF9A0895DF9B02C0DF9801C0C5
:10077200DF9A0E946B06AE9B02C0AE9801C0AE9A91
:100782000E946B06DF9B02C0DF9801C0DF9A0E94C5
:100792006B06AE9B02C0AE9801C0AE9A0E946B0679
:1007A200DF9B02C0DF9801C0DF9A0E946B06AE9BFE
:1007B20002C0AE9801C0AE9A0E946B06DF9B02C0D7
:1007C200DF9801C0DF9A0E946B06AE9B02C0AE9812
:1007D20001C0AE9A0E946B06DF9B02C0DF9801C087
:1007E200DF9A0E946B06AE9B02C0AE9801C0AE9A21
:1007F2000E946B06DF9B02C0DF9801C0DF9A0E9455
:100802006B06AE9B02C0AE9801C0AE9A0E946B0608
:10081200DF9B02C0DF9801C0DF9A0E946B06AE9B8D
:1008220002C0AE9801C0AE9A0E946B06DF9AAE98E3
:10083200AF98ACE3B0E00E949406AF9AAFE0B0E0AC
:100842000E9494060895EFEFEABBE0E0EBBBE7BB42
:10085200E8BBE0ECE4BBE0E8E5BBE0E0E1BBE2BB27
:10086200E2B9E3B9E0936100E0936200E0936400CF
:10087200E0936500E0BFE7E0E3BFE0E0E2BFE1BF95
:10088200EFBDEEBDEDBDECBDE7BDE6BDEBBDEABD26
:10089200E9BDE8BDE0937900E0937800E5BDE4BDF1
:1008A200E3BDE0938B00E0938A00E0938900E0933C
:1008B2008800E0938100E0938000E0938700E0935A
:1008C2008600E0938500E0938400E0938300E09348
:1008D2008200E7BFE0937D00E0936A00EABFE9BFD0
:1008E200EBB9E8EDEAB9E6E0E0939500E0E0E093E9
:1008F2009000E7E0E9B9E0E0E0939B00E8EDE093E7
:100902009A00E6E0E0939D00E0E0E0939800E7E0E3
:10091200E0939900E0E8E8B9E0E4E7B9ECE8E6B989
:10092200E0E0E0BDEDB9E093740078941DDF9D999D
:1009320009C0E0E0EC1510F4A7DD02C0CC2009F4F8
:10094200A0DD02C09D999DDD9A9908C0819906C0DB
:10095200AE9A0E946B06AE980E946B06999908C0E7
:10096200809906C0AF980E946B06AF9A0E946B06F0
:10097200DECFFFCFBA93AA93A991B991EE27FF27B1
:100982006D91662311F03196FBCF0895BA93AA9325
:10099200AA27BB27E991F9910590002011F0119641
:1009A200FBCFFD010895BA93AA93AA810E943A014E
:1009B200A881B981ED91FD913196FE93EE93239634
:1009C2000895BA93AA9326970E94B30610E0AC85C5
:1009D200BD85E0E0F0E0ED93FC93EA89FB89319676
:1009E200EA8BFB8B3197E4912E2FE03011F40C94BB
:1009F2001106E12FE03039F4253211F411E002C082
:100A02000E946F060CC1E130A9F4253219F40E944C
:100A12006F0604C112E040E000E02D3211F401E063
:100A2200FEC02B3211F44BE2FAC0203211F440E244
:100A3200F6C002C0E23039F450E013E0203311F482
:100A42000068EDC004C0E33011F00C9410062033AE
:100A520010F02A3308F007C0AAE05A9F502DE22F67
:100A6200E0535E0FDCC0E22FE33649F40E947606C3
:100A7200E889F989A481AA930E947C06CFC0E33752
:100A820041F40E9476060E9482060E94BB041E2F39
:100A92000AC0E03761F40E9476060E9482060E9434
:100AA200C7041E2F086002600F7730E035C0E436BD
:100AB20011F0E93611F4046002C0E53731F4ECE8D4
:100AC200F0E0EE83FF8315E00DC0E83511F4086015
:100AD20004C0E83711F00C940F06E6E9F0E0EE836B
:100AE200FF8314E002FF14C00E9476060E948C0667
:100AF200AB85AA233AF4EA85FB850E94A206EA871F
:100B0200FB874DE2403011F01F5F01C00B7F04C034
:100B12000E9476060E948C0600FD11C0151778F41B
:100B220007FF08C002FF04C00B7F242F115001C031
:100B320020E301C020E20E946F065150EFCF312F17
:100B420001FF17C03030A1F003FF06C0EE81FF8124
:100B52002591EE83FF8305C0AE81BF812D91AE83C7
:100B6200BF830E946F06503009F051503150EACFD6
:100B72004BC020E3EE81FF810E94AA06E887F98735
:100B8200EE81FF813296EE83FF83E885F985AA859F
:100B9200BB85AE17BF0750F02F5FA885B985EA85E0
:100BA200FB85EA1BFB0BEA87FB87EFCF2A3328F092
:100BB20003FF02C0295F01C0295D04FD1AC0213371
:100BC20020F4A885B985119709F409C0531710F0CC
:100BD20000FF01C013C020E207FF0BC020E3006149
:100BE20002FF07C00B7F4A930E947C06503009F037
:100BF20051500E946F06503009F051503150A88573
:100C0200B985129708F0B5CF00FF08C0503031F017
:100C12005150E0E2EA930E947C06F8CF10E0DDCE6C
:100C2200AC85BD850E94A6060E94BA066496089508
:100C3200FF92F82E26971A930A93DE0114960E94C9
:100C42009E068D01E0E0EC83ED83EE83EF83DE010F
:100C520018960E949E060E94A606FA93EA931A9399
:100C62000A93E4EDF4E0FA93EA93DE011896A9DE22
:100C7200198108812896FF900895D998DA98DB980F
:100C8200D8980895A0EDB7E00C949406AA93EA933D
:100C9200FA93EFB7EA930895E150F0E0E05CFA4F7F
:100CA2000895AAE0B0E00C949406D998D898F9CFA8
:100CB200D998AF9AA8EBBBE00C949406D998AF9A56
:100CC200ACE1B5E20C949406FF27662777270E94D1
:100CD200AE060895A4E6B0E00C9494062A93AD857E
:100CE200BE85EF85F88909950895E889F9893497D1
:100CF200E88BF98B0895AD85BE85EF85F889099556
:100D02000895A889B98914960E94A606EE83FF83E6
:100D1200AE81BF810895A889B98914960E94A6065A
:100D2200EA87FB870895109639F086E69EE00197E0
:100D3200F1F7A8951197C9F708950024AF0DB01DDA
:100D42000895F195E195F0400895ED91FC91119788
:100D520008950590F491E02D08957A936A93FA9399
:100D6200EA9308955A934A933A932A931A930A93C9
:100D720008955D814C813B812A8119810881089502
:00000001FF
