:080000000C9484000C94000034
:100008000C9400000C9400000C9400000C94000068
:100018000C9400000C9400000C9400000C94000058
:100028000C9400000C9400000C9400000C94000048
:100038000C9400000C9400000C9400000C94000038
:100048000C94B3000C9400000C94E1000C94000094
:100058000C9400000C9400000C9400000C94000018
:100068000C9400000C9400000C9400000C94000008
:100078000C940D010C9400000C9430010C940000B9
:100088000C9400001027E80364000A000100001027
:100098000001100001000000000000000000000046
:1000A8000000242531642531642531642531642517
:1000B80031642531642C253164253164253164256A
:1000C80031642531642531642C2531642531642C53
:1000D8002531642531642531642531640A0D000019
:1000E80001002D4E414E00494E460000010002001D
:1000F8009E000A000400A0000100B306E80000000A
:10010800F894EE27ECBBF1E0F5BFE5BFE0936C0097
:100118008DE0A2E0BB27ED938A95E9F780E090E1B6
:10012800A0E0B1E0ED930197E9F7E4EFF0E0859105
:100138009591009761F0A591B59105901590BF0133
:10014800F00105900D920197E1F7FB01F0CFEFEF79
:10015800EDBFE0E1EEBFC0E0D5E00C9454020E9490
:100168004F041A930A931BB10CB1E12FEC7189F477
:10017800E42D4394F0E0E050FB4F0083ECE6E415F7
:1001880009F444246394ECE6E61519F466246894AB
:1001980020F85BC01A936620F1F3E72D7394F0E022
:1001A800E050FB4F1081ECE6E71509F47724F8944A
:1001B8006A947894E12F199108950E944F04BB2006
:1001C80061F0BA94E82D8394F0E0E459FA4FE081A5
:1001D800ECB9ECE6E81509F4882439C0AA93ECE6F2
:1001E800EB15E9F3F894BB2011F45D990DC0E92DE6
:1001F8009394F0E0E459FA4FA881A083ECE6E9155E
:1002080009F49924B39402C0E881ECB97894219652
:1002180008950E944F041A930A9310919B0000912D
:100228009C00E12FEC7189F4EA2DA394F0E0E852E8
:10023800FA4F0083ECE6EA1509F4AA24C394ECE625
:10024800EC1519F4CC24689421F809911991E991D5
:10025800EFBFF991E9911895AA93EA93FA93EFB74A
:10026800EA93E091B206E030B1F0E150E093B206D3
:10027800E091B106EF5FE093B106E150F0E0EC5B8E
:10028800F94FE081E0939C00A091B106AC3619F4D7
:10029800E0E0E093B106E991EFBFF991E991A99106
:1002A8001895B49902C0869B1EC0D99AD89AB39B58
:1002B80002C0D99818C0029B08C0D998DA98DB9870
:1002C800AAE0B0E00E947F040EC0079B06C0D99840
:1002D800AAE0B0E00E947F0406C0849B03C0D998BE
:1002E800D89801C0E2CF0895B59902C0879B0CC089
:1002F800DB9AD89AB39B02C0DB9806C0859B03C0E3
:10030800DB98D89801C0F4CF0895CBDFEDDF0895CE
:1003180041DF5E2EE8E5E51509F063C0EAEAF0E0A2
:10032800FA93EA93E0E09899E1E00E945404E0E04F
:100338009999E1E00E945404E0E09A99E1E00E9472
:100348005404E0E09B99E1E00E945404E0E09C99A9
:10035800E1E00E945404E0E09D99E1E00E94540429
:10036800E0E0B199E1E00E945404E0E0B299E1E0F4
:100378000E945404E0E0B399E1E00E945404E0E0F4
:10038800B499E1E00E945404E0E0B599E1E00E94EC
:100398005404E0E0B699E1E00E945404E0E080995A
:1003A800E1E00E945404E0E08199E1E00E945404F5
:1003B800E0E08699E1E00E945404E0E08799E1E0FA
:1003C8000E945404E0E08499E1E00E945404E0E0D3
:1003D8008599E1E00E94540488E40E942A04EF967B
:1003E8002B96E1E4E51569F4D99AD89AB39B02C033
:1003F800D99806C0849B03C0D998D89801C0F4CF77
:100408004EC0E2E4E51569F4DB9AD89AB39B02C0C2
:10041800DB9806C0859B03C0DB98D89801C0F4CF51
:100428003EC0E3E4E51521F4DB98D898D99837C0A5
:10043800E4E4E51559F4DB9B02C0E0E001C0E1E02B
:10044800E03011F4DB9801C0DB9A29C0E6E4E51539
:1004580059F4AF9B02C0E0E001C0E1E0E03011F4E4
:10046800AF9801C0AF9A1BC0E7E4E51559F4AE9BFD
:1004780002C0E0E001C0E1E0E03011F4AE9801C054
:10048800AE9A0DC0E8E4E51551F4DF9B02C0E0E048
:1004980001C0E1E0E03011F4DF9801C0DF9A08956F
:1004A800EFEFEABBE0E0EBBBE7BBE8BBE0ECE4BBAB
:1004B800E0E8E5BBE0E0E1BBE2BBE2B9E3B9E09329
:1004C8006100E0936200E0936400E0936500E0BFA0
:1004D800E3BFE2BFE1BFEFBDEEBDEDBDECBDE7BDE3
:1004E800E6BDEBBDEABDE9BDE8BDE0937900E09368
:1004F8007800E5BDE4BDE3BDE0938B00E0938A009E
:10050800E0938900E0938800E0938100E093800005
:10051800E0938700E0938600E0938500E0938400F1
:10052800E0938300E0938200E7BFE0937D00E093CF
:100538006A00EABFE9BFEBB9E8EDEAB9E6E0E093A3
:100548009500E0E0E0939000E7E0E9B9E0E0E093AF
:100558009B00E8EDE0939A00E6E0E0939D00E0E080
:10056800E0939800E7E0E0939900E0E8E8B9E0E07C
:10057800E0BDE6B9EDB9E093740078949D9902C0A6
:10058800C7DEC3DE9D99C1DE079B02C0DF9A01C0AA
:10059800DF98F4CFFFCFBA93AA93A991B991EE2728
:1005A800FF276D91662311F03196FBCF0895BA931A
:1005B800AA93AA27BB27E991F9910590002011F089
:1005C8001196FBCFFD010895BA93AA93AA810E94C0
:1005D800F200A881B981ED91FD913196FE93EE93D9
:1005E80023960895BA93AA9326970E949E0410E032
:1005F800AC85BD85E0E0F0E0ED93FC93EA89FB89EA
:100608003196EA8BFB8B3197E4912E2FE03009F479
:1006180015C1E12FE03039F4253211F411E002C0A0
:100628000E945A040AC1E130A9F4253219F40E9443
:100638005A0402C112E040E000E02D3211F401E05A
:10064800FCC02B3211F44BE2F8C0203211F440E226
:10065800F4C002C0E23039F450E013E0203311F462
:100668000068EBC003C0E33009F0E7C0203310F0A6
:100678002A3308F007C0AAE05A9F502DE22FE05312
:100688005E0FDBC0E22FE33649F40E946104E8897B
:10069800F989A481AA930E946704CEC0E33741F484
:1006A8000E9461040E946D040E94CF021E2F0AC09E
:1006B800E03761F40E9461040E946D040E94DB022D
:1006C8001E2F086002600F7730E034C0E43611F066
:1006D800E93611F4046002C0E53731F4ECE8F0E0E3
:1006E800EE83FF8315E00CC0E83511F4086003C001
:1006F800E83709F0A1C0E6E9F0E0EE83FF8314E0F3
:1007080002FF14C00E9461040E947704AB85AA23EB
:100718003AF4EA85FB850E948D04EA87FB874DE25F
:10072800403011F01F5F01C00B7F04C00E946104BC
:100738000E94770400FD11C0151778F407FF08C060
:1007480002FF04C00B7F242F115001C020E301C019
:1007580020E20E945A045150EFCF312F01FF17C0F9
:100768003030A1F003FF06C0EE81FF812591EE83B2
:10077800FF8305C0AE81BF812D91AE83BF830E94E8
:100788005A04503009F051503150EACF4BC020E3A1
:10079800EE81FF810E949504E887F987EE81FF8149
:1007A8003296EE83FF83E885F985AA85BB85AE1767
:1007B800BF0750F02F5FA885B985EA85FB85EA1B3E
:1007C800FB0BEA87FB87EFCF2A3328F003FF02C031
:1007D800295F01C0295D04FD1AC0213320F4A885D2
:1007E800B985119709F409C0531710F000FF01C02B
:1007F80013C020E207FF0BC020E3006102FF07C01F
:100808000B7F4A930E946704503009F051500E94B0
:100818005A04503009F051503150A885B9851297C3
:1008280008F0B5CF00FF08C0503031F05150E0E279
:10083800EA930E946704F8CF10E0E0CEAC85BD854E
:100848000E9491040E94A50464960895FF92F82ED0
:1008580026971A930A93DE0114960E9489048D0143
:10086800E0E0EC83ED83EE83EF83DE0118960E94CF
:1008780089040E949104FA93EA931A930A93E8EE82
:10088800F2E0FA93EA93DE011896ACDE198108814A
:100898002896FF900895EA93FA93EFB7EA9308959C
:1008A800FF27662777270E94990408952A93AD8524
:1008B800BE85EF85F88909950895E889F9893497FF
:1008C800E88BF98B0895AD85BE85EF85F889099584
:1008D8000895A889B98914960E949104EE83FF832C
:1008E800AE81BF810895A889B98914960E949104A0
:1008F800EA87FB870895109639F086E69EE001970F
:10090800F1F7A8951197C9F708950024AF0DB01D08
:100918000895F195E195F0400895ED91FC911197B6
:1009280008950590F491E02D08957A936A93FA93C7
:10093800EA9308955A934A933A932A931A930A93F7
:1009480008955D814C813B812A8119810881089530
:00000001FF
