:0E0000000C9499000C9400000C9400000C94D9
:10000E0000000C9400000C9400000C9400000C9462
:10001E0000000C9400000C9400000C9400000C9452
:10002E0000000C9400000C9400000C9400000C9442
:10003E0000000C9400000C9400000C94C8000C946A
:10004E0000000C94F6000C9469010C9400000C94C2
:10005E0000000C9400000C9400000C9400000C9412
:10006E0000000C9400000C9400000C9421010C94E0
:10007E0000000C9444010C9400000C940000102716
:10008E00E80364000A0001000010000110000100E6
:10009E0000000000000000000000000000350C0011
:1000AE00905F010000710200242531642531642522
:1000BE0031642531642531642531642C2531642564
:1000CE0031642531642531642531642531642C2554
:1000DE0031642531642C2531642531642531642544
:1000EE0031642531642531642531642531640A0D6E
:1000FE00000001002D4E414E00494E460000010009
:10010E0002009E000A000400A00003000005AA00E1
:10011E0003000805AE0003001005B2000100210621
:10012E0000010000F894EE27ECBBF1E0F5BFE5BF4F
:10013E00E0936C008DE0A2E0BB27ED938A95E9F782
:10014E0080E090E1A0E0B1E0ED930197E9F7ECE0FB
:10015E00F1E085919591009761F0A591B59105908B
:10016E001590BF01F00105900D920197E1F7FB018B
:10017E00F0CFEFEFEDBFE0E1EEBFC0E0D5E00C94C5
:10018E0080040E9495061A930A931BB10CB1E12FBD
:10019E00EC7189F4E42D4394F0E0E45EFA4F0083B1
:1001AE00E0E4E41509F444246394E0E4E61519F45C
:1001BE006624689420F85AC01A936620F1F3E72D4E
:1001CE007394F0E0E45EFA4F1081E0E4E71509F471
:1001DE007724F8946A947894E12F199108950E94E7
:1001EE009506BB2061F0BA94E82D8394F0E0E45AB2
:1001FE00FA4FE081ECB9E0E4E81509F4882438C040
:10020E00AA93E0E4EB15E9F3F894BB2011F45D99A1
:10021E000DC0E92D9394F0E0E45AFA4FA881A08323
:10022E00E0E4E91509F49924B39402C0E881ECB92D
:10023E00789465C00E9495061A930A9310919B00BC
:10024E0000919C00E12FEC7189F4EA2DA394F0E06B
:10025E00E456FA4F0083E0E4EA1509F4AA24C394A5
:10026E00E0E4EC1519F4CC24689421F80991199165
:10027E00E991EFBFF991E9911895AA93EA93FA9350
:10028E00EFB7EA93E0911E06E030B1F0E150E09353
:10029E001E06E0911D06EF5FE0931D06E150F0E0B3
:1002AE00E452FA4FE081E0939C00A0911D06A03429
:1002BE0019F4E0E0E0931D06E991EFBFF991E991A1
:1002CE00A9911895EA93FA93E4B1F5B1E0931F065C
:1002DE00F0932006F991E9911895AA93E881E064CC
:1002EE00E7B981E38A95F1F7E5B7E37EE862E5BF0A
:1002FE008895EF7DE5BFE0911F06F09120062196CF
:10030E000895B49902C0869B5DC00E949A060E9411
:10031E00A40608F055C00E94B706029902C0B39B0E
:10032E0003C00E94C5064CC0849B03C00E94CD062C
:10033E0047C00E94D30611F008F03FC00E94E206AB
:10034E00989B10C00E94E806029902C0B39B03C09E
:10035E000E94C50606C0859B03C00E94FA0601C016
:10036E00F1CF2EC0989929C00E94E806029902C0CA
:10037E00B39B03C00E94C5061FC0859B1CC00E9474
:10038E00FA060E94B7060E940A070E94D30611F0D1
:10039E0008F003C00E94E2060DC0029902C0B39B92
:1003AE0003C00E94C50606C0849B03C00E94CD06F2
:1003BE0001C0E7CF01C0D8CF03C00E940E07A7CF60
:1003CE000E9419070895B59902C0879B69C0999933
:1003DE004DC00E941E070E94280788F4DB9AD89A07
:1003EE00029B03C00E94C5060AC0859902C0B39B3A
:1003FE0003C00E943B0703C00E943E07ECCF0E9441
:10040E0019070E9449070E94570770F50E94B70608
:10041E000E94D30611F008F018C00E9419070E941E
:10042E006A070E94280788F4DB9AD89A029B03C0B9
:10043E000E94C5060AC0859902C0B39B03C00E94E4
:10044E003B0703C00E943E07ECCF029B03C00E94F5
:10045E00C5060AC0849902C0B39B03C00E943B0725
:10046E0003C00E947107CFCF0E941907999B18C035
:10047E000E941E070E94280788F4DB9AD89A029BD6
:10048E0003C00E94C5060AC0859902C0B39B03C073
:10049E000E943B0703C00E943E07ECCF0E94190743
:1004AE0008952FDF90DF089587DE5E2EE8E5E515CF
:1004BE0009F077C0E6EBF0E0FA93EA93E0E0989962
:1004CE00E1E00E947C07E0E09999E1E00E947C0760
:1004DE00E0E09A99E1E00E947C07E0E09B99E1E080
:1004EE000E947C07E0E09C99E1E00E947C07E0E03E
:1004FE009D99E1E00E947C07E0E0B199E1E00E9465
:10050E007C07E0E0B299E1E00E947C07E0E0B3995D
:10051E00E1E00E947C07E0E0B499E1E00E947C07F4
:10052E00E0E0B599E1E00E947C07E0E0B699E1E0F9
:10053E000E947C07E0E08099E1E00E947C07E0E009
:10054E008199E1E00E947C07E0E08699E1E00E945B
:10055E007C07E0E08799E1E00E947C07E0E0849967
:10056E00E1E00E947C07E0E08599E1E00E947C07D3
:10057E00E0E00799E1E00E947C07E0E00299E1E00B
:10058E000E947C07E0E00599E1E00E947C07E0E034
:10059E000699E1E00E947C0788E50E947006EF96BE
:1005AE006B96E3E4E51509F05EC00E949A060E9480
:1005BE00A40608F055C00E94B706029902C0B39B6C
:1005CE0003C00E94C5064CC0849B03C00E94CD068A
:1005DE0047C00E94D30611F008F03FC00E94E20609
:1005EE00989B10C00E94E806029902C0B39B03C0FC
:1005FE000E94C50606C0859B03C00E94FA0601C074
:10060E00F1CF2EC0989929C00E94E806029902C027
:10061E00B39B03C00E94C5061FC0859B1CC00E94D1
:10062E00FA060E94B7060E940A070E94D30611F02E
:10063E0008F003C00E94E2060DC0029902C0B39BEF
:10064E0003C00E94C50606C0849B03C00E94CD064F
:10065E0001C0E7CF01C0D8CF03C00E940E07A7CFBD
:10066E000E941907D6C0EFE4E51509F06AC0999902
:10067E004DC00E941E070E94280788F4DB9AD89A64
:10068E00029B03C00E94C5060AC0859902C0B39B97
:10069E0003C00E943B0703C00E943E07ECCF0E949E
:1006AE0019070E9449070E94570770F50E94B70666
:1006BE000E94D30611F008F018C00E9419070E947C
:1006CE006A070E94280788F4DB9AD89A029B03C017
:1006DE000E94C5060AC0859902C0B39B03C00E9442
:1006EE003B0703C00E943E07ECCF029B03C00E9453
:1006FE00C5060AC0849902C0B39B03C00E943B0783
:10070E0003C00E947107CFCF0E941907999B18C092
:10071E000E941E070E94280788F4DB9AD89A029B33
:10072E0003C00E94C5060AC0859902C0B39B03C0D0
:10073E000E943B0703C00E943E07ECCF0E941907A0
:10074E0068C0E3E5E51521F4DB98D898D99861C027
:10075E00E1E4E51559F4D89B02C0E0E001C0E1E008
:10076E00E03011F4D89801C0D89A53C0E2E4E515F0
:10077E0059F4D99B02C0E0E001C0E1E0E03011F491
:10078E00D99801C0D99A45C0E4E4E51559F4DA9B2D
:10079E0002C0E0E001C0E1E0E03011F4DA9801C0FF
:1007AE00DA9A37C0E5E4E51559F4DB9B02C0E0E0C8
:1007BE0001C0E1E0E03011F4DB9801C0DB9A29C002
:1007CE00E6E4E51559F4AF9B02C0E0E001C0E1E0BC
:1007DE00E03011F4AF9801C0AF9A1BC0E7E4E51505
:1007EE0059F4AE9B02C0E0E001C0E1E0E03011F44C
:1007FE00AE9801C0AE9A0DC0E8E4E51551F4DF9B4A
:10080E0002C0E0E001C0E1E0E03011F4DF9801C089
:10081E00DF9A0895DF9B02C0DF9801C0DF9A0E9425
:10082E008207AE9B02C0AE9801C0AE9A0E948207AC
:10083E00DF9B02C0DF9801C0DF9A0E948207AE9B49
:10084E0002C0AE9801C0AE9A0E948207DF9B02C022
:10085E00DF9801C0DF9A0E948207AE9B02C0AE985D
:10086E0001C0AE9A0E948207DF9B02C0DF9801C0D2
:10087E00DF9A0E948207AE9B02C0AE9801C0AE9A6C
:10088E000E948207DF9B02C0DF9801C0DF9A0E94A0
:10089E008207AE9B02C0AE9801C0AE9A0E9482073C
:1008AE00DF9B02C0DF9801C0DF9A0E948207AE9BD9
:1008BE0002C0AE9801C0AE9A0E948207DF9B02C0B2
:1008CE00DF9801C0DF9A0E948207AE9B02C0AE98ED
:1008DE0001C0AE9A0E948207DF9AAE98AF98A0E54B
:1008EE00B0E00E94AF07AF9AA4E1B0E00E94AF075C
:1008FE000895EFEFEABBE0E0EBBBE7BBE8BBE0EC53
:10090E00E4BBE0E8E5BBE0E0E1BBE2BBE2B9E3B9A2
:10091E00E0936100E0936200E0936400E093650071
:10092E00E0BFE3BFE2BFE1BFEFBDEEBDEDBDECBD8D
:10093E00E7BDE6BDEBBDEABDE9BDE8BDE0937900DC
:10094E00E0937800E5BDE4BDE3BDE0938B00E0935A
:10095E008A00E0938900E0938800E0938100E093A1
:10096E008000E0938700E0938600E0938500E0939B
:10097E008400E0938300E0938200E7BFE0937D0064
:10098E00E0936A00EABFE9BFEBB9E8EDEAB9E6E049
:10099E00E0939500E0E0E0939000E7E0E9B9E0E055
:1009AE00E0939B00E8EDE0939A00E6E0E0939D0073
:1009BE00E0E0E0939800E7E0E0939900E0E8E8B922
:1009CE00E0E4E7B9ECE8E6B9E0E0E0BDEDB9E093CC
:1009DE00740078941FDF9D9909C0E0E0E61510F4CD
:1009EE0063DD02C0662009F45CDD02C09D9959DD0D
:1009FE009C9908C0819906C0AE9A0E948607AE984F
:100A0E000E9486079B9908C0809906C0AF980E94E5
:100A1E008607AF9A0E948607DECFFFCFBA93AA93BE
:100A2E00A991B991EE27FF276D91662311F03196AA
:100A3E00FBCF0895BA93AA93AA27BB27E991F99100
:100A4E000590002011F01196FBCFFD010895BA9389
:100A5E00AA93AA810E940701A881B981ED91FD9107
:100A6E003196FE93EE9323960895BA93AA93269702
:100A7E000E94510810E0AC85BD85E0E0F0E0ED93FA
:100A8E00FC93EA89FB893196EA8BFB8B3197E491D3
:100A9E002E2FE03009F415C1E12FE03039F4253264
:100AAE0011F411E002C00E948A070AC1E130A9F4D4
:100ABE00253219F40E948A0702C112E040E000E0DC
:100ACE002D3211F401E0FCC02B3211F44BE2F8C0D0
:100ADE00203211F440E2F4C002C0E23039F450E0AA
:100AEE0013E0203311F40068EBC003C0E33009F0CB
:100AFE00E7C0203310F02A3308F007C0AAE05A9F4F
:100B0E00502DE22FE0535E0FDBC0E22FE33649F4A7
:100B1E000E949107E889F989A481AA930E949707F8
:100B2E00CEC0E33741F40E9491070E949D070E94B8
:100B3E0015051E2F0AC0E03761F40E9491070E942E
:100B4E009D070E9421051E2F086002600F7730E07E
:100B5E0034C0E43611F0E93611F4046002C0E53712
:100B6E0031F4ECE8F0E0EE83FF8315E00CC0E835DD
:100B7E0011F4086003C0E83709F0A1C0E6E9F0E01F
:100B8E00EE83FF8314E002FF14C00E9491070E94BF
:100B9E00A707AB85AA233AF4EA85FB850E941F08B6
:100BAE00EA87FB874DE2403011F01F5F01C00B7FDB
:100BBE0004C00E9491070E94A70700FD11C01517DF
:100BCE0078F407FF08C002FF04C00B7F242F1150DA
:100BDE0001C020E301C020E20E948A075150EFCFEE
:100BEE00312F01FF17C03030A1F003FF06C0EE8198
:100BFE00FF812591EE83FF8305C0AE81BF812D91CC
:100C0E00AE83BF830E948A07503009F05150315095
:100C1E00EACF4BC020E3EE81FF810E944308E887B4
:100C2E00F987EE81FF813296EE83FF83E885F985A1
:100C3E00AA85BB85AE17BF0750F02F5FA885B98573
:100C4E00EA85FB85EA1BFB0BEA87FB87EFCF2A338E
:100C5E0028F003FF02C0295F01C0295D04FD1AC000
:100C6E00213320F4A885B985119709F409C05317CB
:100C7E0010F000FF01C013C020E207FF0BC020E3FD
:100C8E00006102FF07C00B7F4A930E949707503006
:100C9E0009F051500E948A07503009F051503150DE
:100CAE00A885B985129708F0B5CF00FF08C050305F
:100CBE0031F05150E0E2EA930E949707F8CF10E02E
:100CCE00E0CEAC85BD850E9430080E94580864961F
:100CDE000895FF92F82E26971A930A93DE01149622
:100CEE000E941B088D01E0E0EC83ED83EE83EF8321
:100CFE00DE0118960E941B080E943008FA93EA93B0
:100D0E001A930A93EEE2F5E0FA93EA93DE0118964F
:100D1E00ACDE198108812896FF900895EA93FA9324
:100D2E00EFB7EA930895E0E0E0930C05E0930D052C
:100D3E00E0930E05E0930F050895E0910805F091FC
:100D4E00090560910A0570910B05A0910C05B091F3
:100D5E000D0580910E0590910F050E944C08089587
:100D6E00D99AD89AA7E00E947401A8E1B5E0662747
:100D7E0077270E94CD070E9439080895D998DA98EE
:100D8E00DB98D898AAE0B0E00C94AF07D998D89821
:100D9E00AAE0B0E00C94AF07A0911805B091190528
:100DAE0080911A0590911B05E0E0F0E068EC72E48A
:100DBE000E94FB070895D898D998A0EDB7E00C943F
:100DCE00AF07DB9AD89AAAE0B0E00E94AF07A7E07F
:100DDE000E947401A8E1B5E0662777270E94CD072F
:100DEE000E9439080895DB98AAE0B0E00E94AF0790
:100DFE00D898AAE0B0E00E94AF07D998AF9AA8EBB6
:100E0E00BBE00C94AF07AAE0B0E00C94AF07ACE0E7
:100E1E00B5E00E943408EF5FFF4F6F4F7F4F0E9487
:100E2E003E080895D998DA98DB98D8980895E0E0AE
:100E3E00E0930405E0930505E0930605E0930705AE
:100E4E000895E0910005F091010560910205709101
:100E5E000305A0910405B0910505809106059091BA
:100E6E0007050E944C080895DB98D898CCCFA4E0D3
:100E7E00B5E00E943408EF5FFF4F6F4F7F4F0E9427
:100E8E003E080895ACEABDE00E94AF07E0E0E093B3
:100E9E001405E0931505E0931605E09317050895E4
:100EAE00E0911005F09111056091120570911305F6
:100EBE00A0911405B0911505809116059091170516
:100ECE000E944C080895A4ECB9E00E94AF07DB9A8B
:100EDE00D89AADCFA4E1B5E00E943408EF5FFF4F82
:100EEE006F4F7F4F0E943E080895FF276627772792
:100EFE000E9447080895A2E3B0E00C94AF07A4E661
:100F0E00B0E00C94AF072A93AD85BE85EF85F889C6
:100F1E0009950895E889F9893497E88BF98B089536
:100F2E00AD85BE85EF85F88909950895A889B9899B
:100F3E0014960E943008EE83FF83AE81BF81089520
:100F4E00A889B98914960E943008EA87FB8708950C
:100F5E00109639F086E69EE00197F1F7A895119765
:100F6E00C9F7089550E8572711F45F932BC05F3FE0
:100F7E0031F0660F000C57956795752F08955F93A6
:100F8E0000200AF02BC024C0689401C0E89430976A
:100F9E0060407040B1F0002426F0772312F40094E4
:100FAE004BD0172E7EE1112032F07A95EE0FFF1FF7
:100FBE00661F111CF9CFEF2FF62F612D5F93D2DF35
:100FCE005F910895EE27FF27662777275F91089593
:100FDE00EFEFFFEF6FE77FEF5F910895EFEFFFEF1A
:100FEE006FE77FE75F91089599239AF0772342F098
:100FFE00971748F029F4AE17BF07860720F031F097
:10100E0098948894089598940894089518948894C0
:10101E0008957723C2F7971798F3A9F7EA17FB07F6
:10102E00680788F399F3ECCF0024AF0DB01D089537
:10103E00F195E195F0400895F09560957095E195E4
:10104E00FF4F6F4F7F4F08956F2F660F660B762FF2
:10105E000895ED91FC9111970895ED91FD916D918B
:10106E007D910895ED93FD936D937C9308957E93FA
:10107E006E93FE93EE9308950590F491E02D0895EE
:10108E007A936A93FA93EA930895AE17BF07860789
:10109E00970708955A934A933A932A931A930A9369
:1010AE0008955D814C813B812A81198108810895C3
:00000001FF
