:0C0000000C945A000C9400000C940000BA
:10000C000C9400000C9400000C9400000C94000064
:10001C000C9400000C9400000C9400000C94000054
:10002C000C9400000C9400000C9400000C94000044
:10003C000C9400000C9400000C9400000C948900AB
:10004C000C9400000C94A8000C94BF000C940000BD
:10005C000C9400000C9400000C9400000C94000014
:10006C000C9400000C9400000C9400000C94000004
:10007C000C9400000C9400000C9400000C940000F4
:10008C001027E80364000A000100001000011000B2
:10009C0001000000000000000000010002009E00B2
:1000AC0006000400A0000000F894EE27ECBBF1E081
:1000BC00F5BFE5BFE0936C008DE0A2E0BB27ED93AC
:1000CC008A95E9F780E090E1A0E0B1E0ED9301972B
:1000DC00E9F7E6EAF0E085919591009761F0A5913A
:1000EC00B59105901590BF01F00105900D92019707
:1000FC00E1F7FB01F0CFEFEFEDBFE0E1EEBFC0E0C9
:10010C00D5E00C94C200EA93FA93EFB7EA931A93F2
:10011C000A931BB10CB1E12FEC7189F4E52D5394CA
:10012C00F0E0E050FB4F0083E8E6E51509F45524B8
:10013C007394E8E6E71519F47724689420F809918C
:10014C00199112C0EA93FA93EFB7EA93882061F001
:10015C008A94E92D9394F0E0E859FA4FE081ECB9D8
:10016C00E8E6E91509F49924E991EFBFF991E991D1
:10017C001895A4B0B5B01895EFEFEABBE0E0EBBB77
:10018C00E7BBE8BBE0ECE4BBE0E8E5BBE0E0E1BBEF
:10019C00E2BBE2B9E3B9E0936100E0936200E09363
:1001AC006400E0936500E0BFE3BFE2BFE1BFEFBDD9
:1001BC00EEBDEDBDECBDE7BDE6BDEBBDEABDE9BDF9
:1001CC00E8BDE0937900E0937800E5BDE4BDE3BDC4
:1001DC00E0938B00E0938A00E0938900E093880021
:1001EC00E0938100E0938000E0938700E093860029
:1001FC00E0938500E0938400E0938300E093820019
:10020C00E7BFE0937D00E0936A00EABFE9BFEBB97A
:10021C00E8EDEAB9E6E0E0939500E0E0E0939000C9
:10022C00E7E0E9B9E0E0E0939A00E0E8E8B9E0E45F
:10023C00E7B9ECE8E6B9E0E0E0BDEDB9E0937400B5
:10024C007894989B02C0D89A01C0D898FACFFFCF67
:00000001FF
