:040000000C948A00D2
:100004000C9400000C9400000C9400000C9400006C
:100014000C9400000C9400000C9400000C9400005C
:100024000C9400000C9400000C9400000C9400004C
:100034000C9400000C9400000C9400000C9400003C
:100044000C9400000C94B9000C9400000C94E7008C
:100054000C945B010C9400000C9400000C940000C0
:100064000C9400000C9400000C9400000C9400000C
:100074000C9400000C9413010C9400000C943601B1
:100084000C9400000C9400001027E80364000A009C
:100094000100001000011000010000000000000039
:1000A40000000000000024253164253164253164FA
:1000B4002531642531642531642C2531642531646E
:1000C4002531642531642531642531642C2531645E
:1000D4002531642C2531642531642531642531644E
:1000E4002531642531642531642531640A0D00000D
:1000F40001002D4E414E00494E4600000100020011
:100104009E000A000400A00001000506F40000009F
:10011400F894EE27ECBBF1E0F5BFE5BFE0936C008B
:100124008DE0A2E0BB27ED938A95E9F780E090E1AA
:10013400A0E0B1E0ED930197E9F7E0E0F1E085910B
:100144009591009761F0A591B59105901590BF0127
:10015400F00105900D920197E1F7FB01F0CFEFEF6D
:10016400EDBFE0E1EEBFC0E0D5E00C948B030E944C
:10017400A0051A930A931BB10CB1E12FEC7189F419
:10018400E42D4394F0E0E050FB4F0083E0E4E415F9
:1001940009F444246394E0E4E61519F466246894AD
:1001A40020F85BC01A936620F1F3E72D7394F0E016
:1001B400E050FB4F1081E0E4E71509F47724F8944C
:1001C4006A947894E12F199108950E94A005BB20A8
:1001D40061F0BA94E82D8394F0E0E05CFA4FE0819A
:1001E400ECB9E0E4E81509F4882439C0AA93E0E402
:1001F400EB15E9F3F894BB2011F45D990DC0E92DDA
:100204009394F0E0E05CFA4FA881A083E0E4E91560
:1002140009F49924B39402C0E881ECB97894219646
:1002240008950E94A0051A930A9310919B000091CF
:100234009C00E12FEC7189F4EA2DA394F0E0E058DE
:10024400FA4F0083E0E4EA1509F4AA24C394E0E435
:10025400EC1519F4CC24689421F809911991E991C9
:10026400EFBFF991E9911895AA93EA93FA93EFB73E
:10027400EA93E0910206E030B1F0E150E093020627
:10028400E0910106EF5FE0930106E150F0E0E054F5
:10029400FA4FE081E0939C00A0910106A03419F488
:1002A400E0E0E0930106E991EFBFF991E991A991AA
:1002B4001895EA93FA93E4B1F5B1E0930306F09349
:1002C4000406F991E9911895B49902C0869B4EC031
:1002D400D99AD89A029902C0B39B03C00E94A5057B
:1002E40045C0849B03C00E94AD0540C0079B3DC030
:1002F4000E94B305989B14C00E94B905029902C0DC
:10030400B39B03C00E94A5050AC0859B07C00E9439
:10031400C305A8EBBBE00E94050601C0EDCF25C0D4
:10032400989923C00E94B905029902C0B39B03C0E7
:100334000E94A50519C0859B16C00E94C305ACE1A7
:10034400B5E20E940506D99AD89A029902C0B39BD5
:1003540003C00E94A50506C0849B03C00E94AD058E
:1003640001C0F1CF01C0DECF01C0B2CF0895B5996D
:1003740002C0879B0FC0DB9AD89A029B03C00E94DD
:10038400A50508C0859902C0B39B03C00E94D0058F
:1003940001C0F1CF089598DFEADF089503DF5E2EF0
:1003A400E8E5E51509F077C0EAEAF0E0FA93EA93A4
:1003B400E0E09899E1E00E94D605E0E09999E1E057
:1003C4000E94D605E0E09A99E1E00E94D605E0E0BB
:1003D4009B99E1E00E94D605E0E09C99E1E00E944F
:1003E400D605E0E09D99E1E00E94D605E0E0B199F0
:1003F400E1E00E94D605E0E0B299E1E00E94D60572
:10040400E0E0B399E1E00E94D605E0E0B499E1E0D0
:100414000E94D605E0E0B599E1E00E94D605E0E04F
:10042400B699E1E00E94D605E0E08099E1E00E94FF
:10043400D605E0E08199E1E00E94D605E0E08699E6
:10044400E1E00E94D605E0E08799E1E00E94D6054C
:10045400E0E08499E1E00E94D605E0E08599E1E0DE
:100464000E94D605E0E00799E1E00E94D605E0E0AD
:100474000299E1E00E94D605E0E00599E1E00E94DE
:10048400D605E0E00699E1E00E94D60588E50E94E1
:100494007B05EF966B96E3E4E51509F04FC0D99A16
:1004A400D89A029902C0B39B03C00E94A50545C017
:1004B400849B03C00E94AD0540C0079B3DC00E94C1
:1004C400B305989B14C00E94B905029902C0B39B5E
:1004D40003C00E94A5050AC0859B07C00E94C305EE
:1004E400A8EBBBE00E94050601C0EDCF25C098999A
:1004F40023C00E94B905029902C0B39B03C00E94A5
:10050400A50519C0859B16C00E94C305ACE1B5E2E0
:100514000E940506D99AD89A029902C0B39B03C0D7
:100524000E94A50506C0849B03C00E94AD0501C0BE
:10053400F1CF01C0DECF01C0B2CF7BC0EFE4E5153F
:1005440081F4DB9AD89A029B03C00E94A50508C0D7
:10055400859902C0B39B03C00E94D00501C0F1CFAE
:1005640068C0E3E5E51521F4DB98D898D99861C013
:10057400E1E4E51559F4D89B02C0E0E001C0E1E0F4
:10058400E03011F4D89801C0D89A53C0E2E4E515DC
:1005940059F4D99B02C0E0E001C0E1E0E03011F47D
:1005A400D99801C0D99A45C0E4E4E51559F4DA9B19
:1005B40002C0E0E001C0E1E0E03011F4DA9801C0EB
:1005C400DA9A37C0E5E4E51559F4DB9B02C0E0E0B4
:1005D40001C0E1E0E03011F4DB9801C0DB9A29C0EE
:1005E400E6E4E51559F4AF9B02C0E0E001C0E1E0A8
:1005F400E03011F4AF9801C0AF9A1BC0E7E4E515F1
:1006040059F4AE9B02C0E0E001C0E1E0E03011F437
:10061400AE9801C0AE9A0DC0E8E4E51551F4DF9B35
:1006240002C0E0E001C0E1E0E03011F4DF9801C075
:10063400DF9A0895DF9B02C0DF9801C0DF9A0E9411
:10064400DC05AE9B02C0AE9801C0AE9A0E94DC05E8
:10065400DF9B02C0DF9801C0DF9A0E94DC05AE9BDD
:1006640002C0AE9801C0AE9A0E94DC05DF9B02C0B6
:10067400DF9801C0DF9A0E94DC05AE9B02C0AE98F1
:1006840001C0AE9A0E94DC05DF9B02C0DF9801C066
:10069400DF9A0E94DC05AE9B02C0AE9801C0AE9A00
:1006A4000E94DC05DF9B02C0DF9801C0DF9A0E9434
:1006B400DC05AE9B02C0AE9801C0AE9A0E94DC0578
:1006C400DF9B02C0DF9801C0DF9A0E94DC05AE9B6D
:1006D40002C0AE9801C0AE9A0E94DC05DF9B02C046
:1006E400DF9801C0DF9A0E94DC05AE9B02C0AE9881
:1006F40001C0AE9A0E94DC05DF9AAE98AF98ACE3D5
:10070400B0E00E940506AF9AAFE0B0E00E94050693
:100714000895EFEFEABBE0E0EBBBE7BBE8BBE0EC3E
:10072400E4BBE0E8E5BBE0E0E1BBE2BBE2B9E3B98E
:10073400E0936100E0936200E0936400E09365005D
:10074400E0BFE3BFE2BFE1BFEFBDEEBDEDBDECBD79
:10075400E7BDE6BDEBBDEABDE9BDE8BDE0937900C8
:10076400E0937800E5BDE4BDE3BDE0938B00E09346
:100774008A00E0938900E0938800E0938100E0938D
:100784008000E0938700E0938600E0938500E09387
:100794008400E0938300E0938200E7BFE0937D0050
:1007A400E0936A00EABFE9BFEBB9E8EDEAB9E6E035
:1007B400E0939500E0E0E0939000E7E0E9B9E0E041
:1007C400E0939B00E8EDE0939A00E6E0E0939D005F
:1007D400E0E0E0939800E7E0E0939900E0E8E8B90E
:1007E400E0E4E7B9ECE8E6B9E0E0E0BDEDB9E093B8
:1007F400740078941FDF9D9909C0E0E0E61510F4B9
:10080400CDDD02C0662009F4C6DD02C09D99C3DDBA
:100814009A9908C0819906C0AE9A0E94DC05AE98E8
:100824000E94DC05999908C0809906C0AF980E947F
:10083400DC05AF9A0E94DC05DECFFFCFBA93AA9302
:10084400A991B991EE27FF276D91662311F0319696
:10085400FBCF0895BA93AA93AA27BB27E991F991EC
:100864000590002011F01196FBCFFD010895BA9375
:10087400AA93AA810E94F800A881B981ED91FD9103
:100884003196FE93EE9323960895BA93AA932697EE
:100894000E94240610E0AC85BD85E0E0F0E0ED9315
:1008A400FC93EA89FB893196EA8BFB8B3197E491BF
:1008B4002E2FE03009F415C1E12FE03039F4253250
:1008C40011F411E002C00E94E0050AC1E130A9F46C
:1008D400253219F40E94E00502C112E040E000E074
:1008E4002D3211F401E0FCC02B3211F44BE2F8C0BC
:1008F400203211F440E2F4C002C0E23039F450E096
:1009040013E0203311F40068EBC003C0E33009F0B6
:10091400E7C0203310F02A3308F007C0AAE05A9F3A
:10092400502DE22FE0535E0FDBC0E22FE33649F493
:100934000E94E705E889F989A481AA930E94ED053C
:10094400CEC0E33741F40E94E7050E94F3050E94FC
:1009540020041E2F0AC0E03761F40E94E7050E94BC
:10096400F3050E942C041E2F086002600F7730E00C
:1009740034C0E43611F0E93611F4046002C0E537FE
:1009840031F4ECE8F0E0EE83FF8315E00CC0E835C9
:1009940011F4086003C0E83709F0A1C0E6E9F0E00B
:1009A400EE83FF8314E002FF14C00E94E7050E9457
:1009B400FD05AB85AA233AF4EA85FB850E9413065C
:1009C400EA87FB874DE2403011F01F5F01C00B7FC7
:1009D40004C00E94E7050E94FD0500FD11C0151723
:1009E40078F407FF08C002FF04C00B7F242F1150C6
:1009F40001C020E301C020E20E94E0055150EFCF86
:100A0400312F01FF17C03030A1F003FF06C0EE8183
:100A1400FF812591EE83FF8305C0AE81BF812D91B7
:100A2400AE83BF830E94E005503009F0515031502D
:100A3400EACF4BC020E3EE81FF810E941B06E887CA
:100A4400F987EE81FF813296EE83FF83E885F9858D
:100A5400AA85BB85AE17BF0750F02F5FA885B9855F
:100A6400EA85FB85EA1BFB0BEA87FB87EFCF2A337A
:100A740028F003FF02C0295F01C0295D04FD1AC0EC
:100A8400213320F4A885B985119709F409C05317B7
:100A940010F000FF01C013C020E207FF0BC020E3E9
:100AA400006102FF07C00B7F4A930E94ED0550309E
:100AB40009F051500E94E005503009F05150315076
:100AC400A885B985129708F0B5CF00FF08C050304B
:100AD40031F05150E0E2EA930E94ED05F8CF10E0C6
:100AE400E0CEAC85BD850E9417060E942B06649655
:100AF4000895FF92F82E26971A930A93DE0114960E
:100B04000E940F068D01E0E0EC83ED83EE83EF831A
:100B1400DE0118960E940F060E941706FA93EA93C4
:100B24001A930A93E9E3F4E0FA93EA93DE01189640
:100B3400ACDE198108812896FF900895EA93FA9310
:100B4400EFB7EA930895D998DA98DB98D898AAE091
:100B5400B0E00C940506D998D898AAE0B0E00C94BB
:100B64000506D898D998A0EDB7E00C940506DB9A51
:100B7400AAE0B0E00E940506D89AAAE0B0E00C947E
:100B84000506DB98AAE0B0E00E940506D898AAE022
:100B9400B0E00E940506D998AF9A0895DB98D898DA
:100BA400AAE0B0E00C940506FF27662777270E9489
:100BB4001F060895A4E6B0E00C9405062A93AD85BB
:100BC400BE85EF85F88909950895E889F9893497F0
:100BD400E88BF98B0895AD85BE85EF85F889099575
:100BE4000895A889B98914960E941706EE83FF8395
:100BF400AE81BF810895A889B98914960E94170609
:100C0400EA87FB870895109639F086E69EE00197FF
:100C1400F1F7A8951197C9F708950024AF0DB01DF9
:100C24000895F195E195F0400895ED91FC911197A7
:100C340008950590F491E02D08957A936A93FA93B8
:100C4400EA9308955A934A933A932A931A930A93E8
:100C540008955D814C813B812A8119810881089521
:00000001FF
