:0C0000000C9481000C9400000C94000093
:10000C000C9400000C9400000C94B0000C940000B4
:10001C000C9400000C9400000C9400000C94000054
:10002C000C9400000C9400000C9400000C94000044
:10003C000C9400000C9400000C9400000C94B10083
:10004C000C9400000C94E3000C9400000C94000041
:10005C000C9400000C9400000C9400000C94000014
:10006C000C9400000C9400000C9400000C94000004
:10007C000C9400000C9400000C9400000C940000F4
:10008C001027E80364000A000100001000011000B2
:10009C000100000000000000000000002425316475
:1000AC002531642531642531642531642C25316476
:1000BC002531642531642531642531642531642C66
:1000CC00253164253164253164253164253164255D
:1000DC0031642E0A0D0001002D4E414E00494E4652
:1000EC000000010002009E0008000400A0000100B6
:1000FC008005E2000000F894EE27ECBBF1E0F5BFC0
:10010C00E5BFE0936C008DE0A2E0BB27ED938A95F0
:10011C00E9F780E090E1A0E0B1E0ED930197E9F719
:10012C00EEEEF0E085919591009761F0A591B59177
:10013C0005901590BF01F00105900D920197E1F724
:10014C00FB01F0CFEFEFEDBFE0E1EEBFC0E0D5E09B
:10015C000C941C021895EA93FA93EFB7EA931A934E
:10016C000A931BB10CB1E12FEC7189F4E42D43948B
:10017C00F0E0E050FB4F0083E0E4E41509F4442484
:10018C006394E0E4E61519F46624689420F8099168
:10019C00199125C01A936620F1F3E72D7394F0E0C2
:1001AC00E050FB4F1081E0E4E71509F47724F89454
:1001BC006A947894E12F19910895EA93FA93EFB722
:1001CC00EA93BB2061F0BA94E82D8394F0E0E05CF4
:1001DC00FA4FE081ECB9E0E4E81509F48824E991E0
:1001EC00EFBFF991E9911895AA93E0E4EB15E9F3C7
:1001FC00F894BB2011F45D990DC0E92D9394F0E0B7
:10020C00E05CFA4FA881A083E0E4E91509F4992495
:10021C00B39402C0E881ECB9789421960895BADFC2
:10022C005E2EE8E5E51509F073C0E8EAF0E0FA9314
:10023C00EA93E0E0B799E1E00E940A04E0E0B699A5
:10024C00E1E00E940A04E0E0B599E1E00E940A04B2
:10025C00E0E0B499E1E00E940A04E0E0B399E1E047
:10026C000E940A04E0E0CD99E1E00E940A04E0E07B
:10027C00CC99E1E00E940A04E0E0CB99E1E00E9415
:10028C000A04E0E0CA99E1E00E940A04E0E0C9999E
:10029C00E1E00E940A04E0E0C899E1E00E940A044F
:1002AC00E0E08099E1E00E940A04E0E08199E1E05D
:1002BC000E940A04E0E08499E1E00E940A04E0E074
:1002CC008599E1E00E940A04E0E08699E1E00E9451
:1002DC000A04E0E08799E1E00E940A04E0E0079953
:1002EC00E1E00E940A04E0E00299E1E00E940A04C5
:1002FC00E0E00599E1E00E940A04E0E00699E1E003
:10030C000E940A0484E50E94CC03EF9667965AC0BB
:10031C00E3E5E51521F4AC98AD98AE9853C0E1E453
:10032C00E51559F4AC9B02C0E0E001C0E1E0E0301F
:10033C0011F4AC9801C0AC9A45C0E2E4E51559F44F
:10034C00AD9B02C0E0E001C0E1E0E03011F4AD98FB
:10035C0001C0AD9A37C0E4E4E51559F4AE9B02C078
:10036C00E0E001C0E1E0E03011F4AE9801C0AE9ADB
:10037C0029C0E6E4E51559F4AB9B02C0E0E001C0EE
:10038C00E1E0E03011F4AB9801C0AB9A1BC0E7E49C
:10039C00E51559F4A99B02C0E0E001C0E1E0E030B2
:1003AC0011F4A99801C0A99A0DC0E8E4E51551F41F
:1003BC00A89B02C0E0E001C0E1E0E03011F4A89895
:1003CC0001C0A89A0895A89B02C0A89801C0A89A39
:1003DC000E941004A99B02C0A99801C0A99A0E946E
:1003EC001004AB9B02C0AB9801C0AB9A0E941004E6
:1003FC00AC9B02C0AC9801C0AC9A0E941004AD9B9F
:10040C0002C0AD9801C0AD9A0E941004AE9B02C010
:10041C00AE9801C0AE9A0E941004AB9AA898A99805
:10042C00A0E5B0E00E943904A89A0895E0E0EABB88
:10043C00EBBBE7BBE8BBEBE7E4BBE8E0E5BBE0E02C
:10044C00E1BBE2BBE2B9E3B9E0936100E093620087
:10045C00E0936400E0936500E0BFE3BFE2BFE1BF5F
:10046C00EFBDEEBDEDBDECBDE7BDE6BDEBBDEABD40
:10047C00E9BDE8BDE0937900E0937800E5BDE4BD0B
:10048C00E3BDE0938B00E0938A00E0938900E09356
:10049C008800E0938100E0938000E0938700E09374
:1004AC008600E0938500E0938400E0938300E09362
:1004BC008200E7BFE0937D00E0936A00E1E0EABFD1
:1004CC00E0E1E9BFE8BFE0E0EBB9E8EDEAB9E6E06E
:1004DC00E0939500E0E0E0939000E7E0E9B9E0E01C
:1004EC00E0939A00E0E8E8B9E0E0E0BDE6B9EDB9E8
:1004FC00E0937400789467DF879904C0E0E0E61518
:10050C0008F48DDEF9CFFFCFBA93AA93AA810E948B
:10051C00FA00A881B981ED91FD913196FE93EE938D
:10052C0023960895BA93AA9326970E94580410E034
:10053C00AC85BD85E0E0F0E0ED93FC93EA89FB89A6
:10054C003196EA8BFB8B3197E4912E2FE03009F436
:10055C0015C1E12FE03039F4253211F411E002C05D
:10056C000E9414040AC1E130A9F4253219F40E9446
:10057C00140402C112E040E000E02D3211F401E05D
:10058C00FCC02B3211F44BE2F8C0203211F440E2E3
:10059C00F4C002C0E23039F450E013E0203311F41F
:1005AC000068EBC003C0E33009F0E7C0203310F063
:1005BC002A3308F007C0AAE05A9F502DE22FE053CF
:1005CC005E0FDBC0E22FE33649F40E941B04E8897E
:1005DC00F989A481AA930E942104CEC0E33741F487
:1005EC000E941B040E9427040E94F1031E2F0AC0C4
:1005FC00E03761F40E941B040E9427040E94FD0353
:10060C001E2F086002600F7730E034C0E43611F022
:10061C00E93611F4046002C0E53731F4ECE8F0E09F
:10062C00EE83FF8315E00CC0E83511F4086003C0BD
:10063C00E83709F0A1C0E6E9F0E0EE83FF8314E0AF
:10064C0002FF14C00E941B040E943104AB85AA2334
:10065C003AF4EA85FB850E944704EA87FB874DE262
:10066C00403011F01F5F01C00B7F04C00E941B04BF
:10067C000E94310400FD11C0151778F407FF08C063
:10068C0002FF04C00B7F242F115001C020E301C0D6
:10069C0020E20E9414045150EFCF312F01FF17C0FC
:1006AC003030A1F003FF06C0EE81FF812591EE836F
:1006BC00FF8305C0AE81BF812D91AE83BF830E94A5
:1006CC001404503009F051503150EACF4BC020E3A4
:1006DC00EE81FF810E944F04E887F987EE81FF814C
:1006EC003296EE83FF83E885F985AA85BB85AE1724
:1006FC00BF0750F02F5FA885B985EA85FB85EA1BFB
:10070C00FB0BEA87FB87EFCF2A3328F003FF02C0ED
:10071C00295F01C0295D04FD1AC0213320F4A8858E
:10072C00B985119709F409C0531710F000FF01C0E7
:10073C0013C020E207FF0BC020E3006102FF07C0DB
:10074C000B7F4A930E942104503009F051500E94B3
:10075C001404503009F051503150A885B9851297C6
:10076C0008F0B5CF00FF08C0503031F05150E0E236
:10077C00EA930E942104F8CF10E0E0CEAC85BD8551
:10078C000E944B040E945F0464960895FF92F82E19
:10079C0026971A930A93DE0114960E9443048D0146
:1007AC00E0E0EC83ED83EE83EF83DE0118960E948C
:1007BC0043040E944B04FA93EA931A930A93EAE8CF
:1007CC00F2E0FA93EA93DE011896ACDE1981088107
:1007DC002896FF900895BA93AA93A991B991EE2700
:1007EC00FF276D91662311F03196FBCF0895BA93D4
:1007FC00AA93AA27BB27E991F9910590002011F043
:10080C001196FBCFFD010895FF27662777270E94DD
:10081C0053040895A4E6B0E00C9439042A93AD85F2
:10082C00BE85EF85F88909950895E889F98934978B
:10083C00E88BF98B0895AD85BE85EF85F889099510
:10084C000895A889B98914960E944B04EE83FF83FE
:10085C00AE81BF810895A889B98914960E944B0472
:10086C00EA87FB870895109639F086E69EE001979B
:10087C00F1F7A8951197C9F708950024AF0DB01D95
:10088C000895F195E195F0400895ED91FC91119743
:10089C0008950590F491E02D08957A936A93FA9354
:1008AC00EA9308955A934A933A932A931A930A9384
:1008BC0008955D814C813B812A81198108810895BD
:00000001FF
